:020000040040BA
:10000000A55AA55A010000000000000000084000A9
:100010000000000000084000000000000008400050
:1000200000000000000000000000000000000000D0
:1000300000000000000000000000000000000000C0
:1000400000000000000000000000000000000000B0
:1000500000000000000000000000000000000000A0
:1008000000BF00BF00BF00BFFFF7FABF000000003D
:1008100072B64FF000004FF000014FF000024FF0B1
:1008200000034FF000044FF000054FF000064FF0BA
:1008300000074FF0640001380028FCDC50480168D4
:100840004FF0807201EA020100291CD14D48016875
:100850004FF0807241EA020101604B4801684FF09D
:10086000010241EA02010160484845F6F0210160B9
:100870004AF20F510160424801684FF0807201EA6C
:1008800002010029F7D04248424901604249086804
:1008900020F0040040F0010008604049086820F0A2
:1008A000040040F0010008603D4880F308883D489E
:1008B00001684FF00000814200D02DE03A484CF230
:1008C000205101604DF62811016038483849016017
:1008D0000AE038484CF2205101604DF628110160C1
:1008E000354833490160FFE73448002814D03448C4
:1008F00001684FF0010201EA0201002902D03149EA
:10090000314A01E03149304A521A013A04DD0020EF
:10091000002309C1083AFCDA2D48002809D02D49E6
:100920002D4A521A013A04DD0020002309C1083A79
:10093000FCDA2A48002809D029492A4A521A013AE1
:1009400004DD0020002309C1083AFCDA26480068CB
:100950004FF05A318842F9D0124801684FF0000038
:10096000814202D000F030FF01E000F0DDFE00F037
:10097000D7FE62B600F0D6FE00F0B2FE00BFFEE782
:1009800010C32D4030C32D4004C32D4000C02D4066
:1009900008ED00E00000002094EF00E090EF00E0A0
:1009A00000000220040026401000274000002740DD
:1009B000400000FF10C0464000C04640010000005B
:1009C00000C028400000402000004C2000004020D3
:1009D00001000000000000200000022001000000D3
:1009E000000000000000010050034220036A2DE9CE
:1009F000F041846880460E46002B3BD0A3891B073C
:100A000017D52369ABB1013EA36816F8015F013B1E
:100A1000A360EDB1002B07DAA7699F422246294661
:100A2000404610DC0A2D0ED023685A1C22601D702F
:100A3000EAE72146404600F085FB0028E3D04FF06E
:100A4000FF30BDE8F08100F019FD0130DCD1F6E7A0
:100A5000002B09DA22460A21404600F00FFD013042
:100A6000EDD00A20BDE8F08123680A22591C2160DC
:100A70001A70F6E700F0F4F8C0E700BF024B014639
:100A80001868FFF7B3BF00BF600342200020704723
:100A9000024A0349034800F033BB00BF540342201D
:100AA000790E4000640342200C4B4168994210B516
:100AB000044601D000F0E0F9A168094B994202D048
:100AC000204600F0D9F9E168064B994204D020464F
:100AD000BDE8104000F0D0B910BD00BF00004020BC
:100AE00068004020D0004020002070472DE9F843E6
:100AF0002A4C2B49DFF8BC90DFF8BC80294FC4F8A2
:100B00003811002504230822294604F15C00264EF2
:100B1000E360C4E90055C4E90455A5606566A561B4
:100B200000F0C6F8214B63670822294604F1C4008F
:100B3000C4E90849C4E90A87C4E91A55C4E91E553D
:100B40002567C4F8CC50C4F88050266300F0B0F894
:100B5000174BC4F8DC30294604F16803082204F579
:100B60009670C4F88830C4E92398C4E92576C4E9AE
:100B70003455C4E93855C4F8D850C4F83451C4F8D1
:100B8000E85000F095F804F1D003C4E93D98C4E9B9
:100B90003F76C4F8F030BDE8F88300BF0000402085
:100BA000910A4000A9154000CD1540000900010040
:100BB000120002004115400069154000F8B5254BB0
:100BC000D3F838310646002B3CD0234FD7E9013407
:100BD000013B04D51DE05A1C04F1680419D0B4F996
:100BE0000C50013B002DF6D11C4BE360C4E90155CC
:100BF000C4E9045565662560A5610822294604F10B
:100C00005C0000F055F8C4E90D55C4E912552046C2
:100C1000F8BD3D680DB12F46D8E74FF4D671304688
:100C200000F090F9044680B10423C0E900530C3071
:100C30002946A0604FF4D072254600F039F83C6098
:100C40002F46C3E7FFF752FFBFE70C23386033603E
:100C5000DDE700BF00004020540342200100FFFFF9
:100C6000036A03B17047044B044AD3F83831026277
:100C7000002BF7D13AE700BF00004020A90A40004E
:100C8000704700BF704700BF024A0349002000F0D0
:100C900037BA00BF540342208D0A4000024A03497C
:100CA000002000F02DBA00BF54034220E90A4000A2
:100CB000830730B547D0541E002A3ED0CAB203463F
:100CC00001E0013C39D303F8012B9D07F9D1032C36
:100CD0002CD9CDB205EB05250F2C05EB054535D9F3
:100CE000A4F1100222F00F0C03F1100EE6444FEABB
:100CF000121C1A46C2E90055C2E90255103272456B
:100D0000F8D10CF1010214F00C0F03EB021204F005
:100D10000F0C13D0ACF1040323F00303043313448A
:100D200042F8045B9342FBD10CF003042CB1C9B22E
:100D30001C4403F8011BA342FBD130BD644613469B
:100D4000002CF4D1F9E703461446C0E71A46A4463E
:100D5000E0E700BFB1F90C302DE9F0411E070C4669
:100D600080463DD44A68002A56DDE56A002D34D01D
:100D70000022D8F80060C8F8002013F48052216ADD
:100D800057D101234046A847451C024666D0B4F916
:100D90000C30E56A216A580705D56368D21A636B7F
:100DA0000BB1236CD21A00234046A847431C42D003
:100DB0000023636023692360A389DF0400D5606595
:100DC000616BC8F8006041B104F14403994202D05C
:100DD000404600F037F9002363630020BDE8F0814E
:100DE0000E69002EF9D09B070D6808BF4B690E6095
:100DF00018BF0023AD1B8B600BE02B463246216AE7
:100E0000A76A4046B847B0F1000CA5EB0C05664454
:100E100006DD002DF1DCE0E70A6C002AA5DCDCE74A
:100E2000B4F90C3043F04003A3814FF0FF30BDE82C
:100E3000F081626DAFE7D8F80010B4F90C301D29CD
:100E4000F0D80C4ACA40D507ECD5226922600022AE
:100E50006260DA04B4D50029B1D0B1E7D8F8003027
:100E6000002B94D01D2B01D0162BD9D1C8F80060CF
:100E7000B3E700BF010040200B69B3B110B50446D1
:100E800082B008B1036A5BB1B1F90C3013B900202C
:100E900002B010BD204602B0BDE81040FFF75ABFB7
:100EA0000191FFF7DDFE0199EEE70020704700BFDA
:100EB000B8B138B50D4A0369156804462BB10DB1B8
:100EC0002B6A53B1B4F90C300BB9002038BD214660
:100ED0002846BDE83840FFF73DBF2846FFF7C0FE73
:100EE000F0E7034A0349044800F00AB960034220CE
:100EF00054034220790E40006403422070B5104E26
:100F0000336805460C46B3B12146284600F006FB7F
:100F1000431C0CD0C41C24F00304A04205D0211AA9
:100F2000284600F0FBFA013001D0204670BD4FF09A
:100F3000FF34204670BD194600F0F0FA3060E3E758
:100F40003C0140202DE9F843CD1C25F00305083570
:100F50000C2D38BF0C25002D064618DBA94216D8EB
:100F6000DFF8DC8000F0EAF9D8F80420A2B11446DA
:100F700003E0636822467BB11C4623685B1BF8D400
:100F80000B2B1FD89442636854D053600CE00C23A1
:100F900033600020BDE8F88329463046FFF7AEFFF6
:100FA000431C044619D00560304600F0C9F904F12D
:100FB0000B00231D20F00700C21A1CBF1B1AA350F0
:100FC000BDE8F88361199442256014BF5160C8F8E8
:100FD0000410635163684B60E6E7D8F804701FB3F0
:100FE0003C467F68002FFBD123683946304604EB2E
:100FF000030900F093FA814516D12368ED1A2946BA
:101000003046FFF77BFF01300ED02368D8F804206C
:101010002B442360536883B1A34203D01A465B6814
:101020009C42FBD10023B0E70C233360304600F034
:1010300087F9AEE7C8F80430B6E7C8F80470B3E73C
:101040003C014020002950D038B551F8043C0C1F19
:10105000002BB8BFE418054600F070F9274A136862
:101060002BB1A3420CD92168601883422CD0636055
:1010700028461460BDE8384000F062B9A3420FD89A
:101080001A465B68002BF9D111685018844217D0BA
:101090002CD3636054602846BDE8384000F050B956
:1010A00011685018A04214D020D8216860188342DB
:1010B000EFD118685B680844C4E900035460EAE7AC
:1010C00023680B441360E6E718685B6808442060F7
:1010D000CDE720680144501883421160DBD1D3E989
:1010E00000040144C2E90014D5E770470C232B60CB
:1010F0002846BDE8384000F023B900BF4001402039
:101100002DE9F8430746884616464FF00009D6E910
:101110000154013D10D4A389012B08D9B4F90E3034
:1011200001332146384602D0C04749EA0009013D53
:101130006B1C04F16804EED13668002EE7D14846F6
:10114000BDE8F88338B52F4B1B6805460C4613B134
:101150001A6A002A4BD0B4F90C3018071CD5226942
:1011600022B313F0010107D0616900204942A06059
:10117000A1613AB1002038BD980758BF6169A160EC
:10118000002AF7D1190658BF1046F4D543F04003A2
:10119000A3814FF0FF3038BDD9062CD55A0712D4A1
:1011A000226943F00803A381002ADAD103F42071F5
:1011B000B1F5007FD5D02146284600F0C3F8B4F938
:1011C0000C302269CDE7616B51B104F144029142C8
:1011D00004D02846FFF736FFB4F90C3000226263D2
:1011E00022690021C4E9002123F02403D9E718462D
:1011F000FFF736FDAFE7092243F040032A60A381E1
:10120000C7E700BF60034220844641EA000313F0B1
:1012100003036DD1403A41D351F8043B40F8043BFD
:1012200051F8043B40F8043B51F8043B40F8043BC0
:1012300051F8043B40F8043B51F8043B40F8043BB0
:1012400051F8043B40F8043B51F8043B40F8043BA0
:1012500051F8043B40F8043B51F8043B40F8043B90
:1012600051F8043B40F8043B51F8043B40F8043B80
:1012700051F8043B40F8043B51F8043B40F8043B70
:1012800051F8043B40F8043B51F8043B40F8043B60
:1012900051F8043B40F8043B403ABDD2303211D300
:1012A00051F8043B40F8043B51F8043B40F8043B40
:1012B00051F8043B40F8043B51F8043B40F8043B30
:1012C000103AEDD20C3205D351F8043B40F8043B00
:1012D000043AF9D2043208D0D2071CBF11F8013BFE
:1012E00000F8013B01D30B8803806046704700BFC4
:1012F000082A13D38B078DD010F003038AD0C3F1D3
:101300000403D21ADB071CBF11F8013B00F8013BB4
:1013100080D331F8023B20F8023B7BE7043AD9D373
:10132000013A11F8013B00F8013BF9D20B78037048
:101330004B7843708B78837060467047704700BF6E
:10134000704700BF70B5B1F90C300C46990796B0E4
:1013500007D504F147030122C4E90432236016B023
:1013600070BDB4F90E100029054629DB6A4600F06D
:1013700059F9002822DB4FF480612846019EFFF7CF
:10138000E1FD88B3A389206043F0800306F4704632
:10139000A381B6F5005F4FF48063C4E90403DED196
:1013A000B4F90E10284600F057F80028D7D0A389CA
:1013B00023F0030343F00103A381D0E7B4F90C3019
:1013C00013F0800F14BF40264FF480663146284644
:1013D000FFF7B8FD40B1A389206043F08003C4E962
:1013E0000406A38116B070BDB4F90C309A05B6D4CA
:1013F00023F0030304F1470243F002030121C4E98F
:101400000421A3812260AAE770B50C46B1F90E1041
:10141000002996B015461E460FDB6A4600F002F919
:1014200000280ADB019B03F47043A3F50053B3FAD1
:1014300083F34FF480625B0908E0A28912F0800F09
:101440004FF0000314BF40224FF48062002033604D
:101450002A6016B070BD00BF38B5074D00220446A3
:1014600008462A6000F0F8F9431C00D038BD2B680C
:10147000002BFBD0236038BD44014020F8B50D4659
:101480001446064610B1036A002B37D0A389A2691F
:10149000A2601A0719D52369BBB122686169D31A02
:1014A000EDB299422F4620DD0133A1680139A160D8
:1014B000511C2160157062699A420DD0A389DB0727
:1014C00001D50A2D08D03846F8BD21463046FFF731
:1014D00039FE38B92369E0E721463046FFF7CCFCF6
:1014E0000028F0D04FF0FF37EDE721463046FFF7F8
:1014F000C3FC0028F6D122680123D6E7FFF7B0FB32
:10150000C4E700BF10B4044C03460A4620685DF8E7
:10151000044B1946FFF7B2BF6003422038B5074DB0
:101520000022044608462A6000F09AF9431C00D0C5
:1015300038BD2B68002BFBD0236038BD4401402010
:1015400010B50C46B1F90E1000F056F8002803DB78
:10155000636D0344636510BDA38923F48053A381A5
:1015600010BD00BF002070472DE9F0410C46B1F9D5
:101570000C101F46CB05054616460BD421F48051AE
:10158000A1813B46B4F90E1032462846BDE8F04131
:1015900000F074B8B4F90E100223002200F058F8DD
:1015A000B4F90C10EAE700BF10B50C46B1F90E1003
:1015B00000F04EF8B4F90C30421C0EBF23F48053F7
:1015C00043F480536065A38110BD00BFB1F90E10D4
:1015D00000F000B838B5074D0022044608462A60DE
:1015E00000F030F9431C00D038BD2B68002BFBD035
:1015F000236038BD4401402038B50C46084D844670
:10160000114620461A4600232B60644600F018F964
:10161000431C00D038BD2B68002BFBD0236038BDA5
:101620004401402070B50C46084D03460026204674
:1016300011461C462E6000F009F9431C00D070BD15
:101640002B68002BFBD0236070BD00BF44014020FD
:1016500038B50C46084D8446114620461A460023EC
:101660002B60644600F0FAF8431C00D038BD2B68AC
:10167000002BFBD0236038BD4401402038B50C4618
:10168000084D8446114620461A4600232B606446C6
:1016900000F0D4F8431C00D038BD2B68002BFBD0E1
:1016A000236038BD44014020044C08B52046FFF7B4
:1016B000E5F94FF47A7000F059FCF7E76C3340001D
:1016C000044C08B52046FFF7D9F94FF4FA6000F052
:1016D0004DFCF7E778334000FEE700BFFEE700BFB0
:1016E0000024012580220A4923460A4800B583B018
:1016F000CDE9005400F034FB802223460649074818
:10170000CDE9005400F02CFB00F068FCFEE700BFC0
:101710008C334000A916400098334000C1164000A9
:10172000704700BF704700BF2DE9F843244D2E6875
:101730004EB306EB460605EB86066C68D5E9020358
:10174000A3EB000C0CF003075FEA9C0C0BD0031F0B
:101750004FEA8C0C221F03EB0C0E53F8041F9E451E
:1017600042F8041FF9D15FB1C11900EB0C0304EB7F
:101770000C02614413F8010B994202F8010BF9D1F4
:101780000C35B542D9D10F4D2B68B3B14FF00009DC
:1017900005EBC3080021D5E90164A41B3046A70866
:1017A0004FEA870201D0FFF783FAA30705F1080586
:1017B00018BF46F827904545ECD1BDE8F88300BF37
:1017C000B833400004344000F0B51A4E1A4D336867
:1017D000AB422DD905EB450503EB430306EB85052D
:1017E00006EB83066C68D5E90203A3EB000C0CF052
:1017F00003075FEA9C0C0BD0031F4FEA8C0C221FDF
:1018000003EB0C0E53F8041F9E4542F8041FF9D158
:101810005FB1C11900EB0C0304EB0C02614413F837
:10182000010B994202F8010BF9D10C35B542D9D11F
:10183000F0BD00BFB8334000030000001046704701
:10184000002070474FF0FF30704700BF4FF4005347
:1018500000204B60704700BF012070470020704798
:10186000024A03461068034413607047B0034220E5
:1018700000F108034FF0FF3100228160C0E900232E
:10188000C0E90333704700BF00230361704700BF06
:1018900030B40D686B1C10D000F108031C465B6867
:1018A0001A68AA42FAD902684B60013299608C60CA
:1018B00061600861026030BC704704696368F2E7E8
:1018C000026903464068996810B4546881609C427C
:1018D0004860106808BF5160002101385DF8044B72
:1018E00019611060704700BF2DE9F843244C05468C
:1018F000244A0F462668244B244CD2F8008000224C
:10190000D3F800902368206883F85B200430FFF749
:10191000D7FF40B9236801221D49DB6A9A400B6852
:1019200023EA02030B606B1C14D19FB1194B206892
:101930005968226881608868D060226804324260F9
:1019400020681A6824680430013288601A60636174
:10195000BDE8F8832368761921685E6005D34846A0
:101960000431BDE8F843FFF793BF40460431FFF769
:101970008FFF094B1A68B242EAD91E60BDE8F883AE
:101980006C014020B8014020B40140209802402062
:10199000680140207401402050014020F8B50F4DEF
:1019A0002B68CBB10E4F0F4E01F0F2FBFB68DC68E9
:1019B000201DFFF785FF3368013B33602B68013B37
:1019C0002B6001F00BFC206B01F0AEFA204601F019
:1019D000ABFA2B68002BE7D1F8BD00BF880140208F
:1019E0008C014020700140200B4C4FF0E0264FF05E
:1019F000805508B5FFF7D2FF2368012BFAD9C6F846
:101A0000045DBFF34F8FBFF36F8FFFF7C7FF2368EE
:101A1000012BF4D8EEE700BFE4014020654B2DE92F
:101A2000F04F1C6883B001341C60002C00F09280E1
:101A300061490B689C4276D3DFF890E1DEF8003014
:101A40001B68002B00F0B1804FF0000C5B485C4F2E
:101A50005C4D6646019159E0D3F81480D3E9022A1F
:101A6000C2F808A0CAF80420D8F804208A42D8F89E
:101A7000002002F1FF3208BFC8F804A05E61C8F878
:101A80000020D3F82880B8F1000F12D0D3E9072A3C
:101A9000C2F808A0CAF80420D8F804204A45D8F8AB
:101AA000002002F1FF3208BFC8F804A09E62C8F807
:101AB0000020DA6A4FF00109D5F800A002EB820895
:101AC00009FA02F949EA0A0900EB880AC5F8009008
:101AD000DAF80490D9F808B0C3F80890C3F80CB04D
:101AE000CBF80410C9F80810C3F814A050F8283037
:101AF00039680133C96A40F82830DEF800308A427C
:101B000088BF4FF0010C1B68002B43D0DEF800307B
:101B1000DB68DB685A68191D03F1180994429BD2EF
:101B200001990A6003E04FF0000C2448244F3B6801
:101B3000254ADB6A126803EB830350F82330022B3B
:101B400028BF4FF0010C002A0CBF6046012003B0F3
:101B5000BDE8F08F1D4B1A68126852B14FF0500368
:101B600072B683F31188BFF36F8FBFF34F8F62B6E6
:101B7000FEE7174A186811681960164910600A686C
:101B800001320A601A6812684AB90B494FF0FF33F4
:101B90000B604EE701994FF0FF330B60C7E71B68FE
:101BA0000549DB681B680B6043E79C460348044F0C
:101BB000F1E700BF6C01402050014020E4014020CB
:101BC00098024020680140205C014020B80140207C
:101BD000B4014020580140202DE9F04FDFF8748116
:101BE00083B0D8F80030013BC8F80030D8F8009036
:101BF000B9F1000F40F091804F4B1B68002B00F0B3
:101C00008C80DFF854C1DCF80030002B00F09180AC
:101C10004A4BDFF848E14A4E0193DCF80C30DB68B0
:101C20009A6AD3E9070154688160486003F118009B
:101C3000844208BF51601168C3F8289001391160CF
:101C400059691D1DDEF80040D3E902209060426012
:101C50004A68AA42DA6A08BF486008680138086022
:101C6000012002EB8201904006EB810720437C6853
:101C7000CEF800003348D4F808B00068D0F82CA0A3
:101C800056F8210052459C6000F10100C3F80CB0E9
:101C9000CBF80450A5605F6146F8210002D9019B92
:101CA00001221A60DCF80030002BB6D1264B1A68EE
:101CB0001268002A38D01A68244BD26812681A6059
:101CC000234D2C689CB10126019F05E0FFF7A6FE7D
:101CD00000B13E60013C09D0D8F80030002BF5D0AF
:101CE0002B68013C03F101032B60F5D12C60019BB3
:101CF0001B6893B14FF0E0234FF0805211490968FF
:101D0000C3F8042DBFF34F8FBFF36F8F012401F091
:101D100065FA204603B0BDE8F08F002401F05EFABA
:101D2000204603B0BDE8F08F084B4FF0FF321A6039
:101D3000C6E7024B0193C3E7700140205C014020DD
:101D4000E401402098024020B8014020500140208A
:101D50006001402048014020A0014020680140204F
:101D60002DE9F8439500064689461F46284600F0AF
:101D7000EFFF002800F0AE8004465C2000F0E8FF92
:101D80008046002800F0A3805C220021FEF790FF2F
:101D90002046C8F830402A46A521FEF789FFD8F82A
:101DA0003040B9F1000F0FD009F1FF3C09F10F01EC
:101DB00008F1330E1CF8012F0EF8012F0AB18C45E3
:101DC000F8D1002388F84330089B082B0AD94FF03C
:101DD000500372B683F31188BFF36F8FBFF34F8F39
:101DE00062B6FEE7089B08F10409043DC8F82C30F0
:101DF0004846C8F84430FFF747FD08F11800FFF7E0
:101E000043FD089B60193A46C3F10904314620F0AE
:101E10000700C8F81080C8F81840C8F8248001F0FE
:101E20009FF9099BC8F800000BB1C3F8008001F0CE
:101E3000AFF9414A414C1368013313602368002B0A
:101E40004CD03F4ED8F82C2033682BB92368DB6A7E
:101E5000934201D8C4F800803A4DDFF80CC101214B
:101E600002EB8203384F01FA02F2DCF8001005EBB6
:101E7000830001319B00CCF80010D7F800C0416806
:101E800042EA0C02C8F808103A60EA588F6801323A
:101E9000C8F80C70C7F80490C1F80890C8F814008E
:101EA000EA5001F09BF933687BB12268D8F82C30F6
:101EB000D26A9A4209D24FF0E0234FF08052C3F821
:101EC000042DBFF34F8FBFF36F8F012004E0204636
:101ED00001F02AF84FF0FF30BDE8F883C4F8008025
:101EE0001368012B04D0D8F82C20164D144EB4E7FB
:101EF000144D2E4605F1B40730461436FFF7B8FCF2
:101F0000BE42F9D1114F124E3846FFF7B1FC3046B0
:101F1000FFF7AEFC0F48FFF7ABFC0F48FFF7A8FC3C
:101F20000E48FFF7A5FC0E4BD8F82C201F600D4B78
:101F30001E60034E91E700BF7001402098024020D0
:101F400064014020E401402068014020D00140208D
:101F5000BC014020A00140208C01402074014020A1
:101F6000B8014020B40140205401402010B550B9C0
:101F70004FF0E0234FF08052C3F8042DBFF34F8F92
:101F8000BFF36F8F10BD144C2368013323602368A7
:101F9000012B0AD04FF0500372B683F31188BFF3C0
:101FA0006F8FBFF34F8F62B6FEE70021FFF79CFCF7
:101FB00001F0EEF8236853B94FF0500372B683F383
:101FC0001188BFF36F8FBFF34F8F62B6FEE7FFF745
:101FD00003FE0028CCD010BD4801402010B51E499A
:101FE00086B000241D48019180220290234602A958
:101FF0001B4800948DF80C40FFF7B2FE18B1012881
:1020000010D0013003D0174B1B6806B010BD4FF045
:10201000500372B683F31188BFF36F8FBFF34F8FF6
:1020200062B6FEE700F06CFE0128EAD14FF05003E3
:1020300072B683F31188BFF36F8FBFF34F8F62B611
:10204000094B4FF0FF31094A1960094B10601C60C1
:1020500001F0E6F8D7E700BF4C01402049444C4569
:10206000E9194000B4334000500140206401402091
:102070006C014020024A136801331360704700BFAF
:102080004801402008B501F083F8094B1B6853B99B
:102090004FF0500372B683F31188BFF36F8FBFF315
:1020A0004F8F62B6FEE7BDE80840FFF795BD00BF61
:1020B00048014020014B1868704700BF6C01402068
:1020C000014B1868704700BF70014020254B1B680A
:1020D0001BB1254B01221A607047234A10B5234CCF
:1020E000136023681B6B1A68B2F1A53F03D15A68CD
:1020F000B2F1A53F29D0216820683431FFF7ECFA0E
:102100001B4B1B68B3FA83F3DBB21A49C3F11F03FD
:1021100003EB83039A0001EB8303885850B94FF017
:10212000500372B683F31188BFF36F8FBFF34F8FE5
:1021300062B6FEE75868083240680A449042586028
:102140000CD0C3682360236810BD9A68B2F1A53F24
:10215000D1D1DB68B3F1A53FCDD1D1E7D8685860C4
:10216000EFE700BF480140205C014020980240207A
:1021700068014020E401402060B10C4B10B50C46D2
:1021800019681831FFF784FB20460121BDE8104093
:10219000FFF7AABB4FF0500372B683F31188BFF369
:1021A0006F8FBFF34F8F62B6FEE700BF98024020EB
:1021B00020B38C461146174A03460029F0B54568FE
:1021C00008BF6046146818BF4FF0FF30D2F800E037
:1021D000E56117681C6816681837D2F800C001342A
:1021E00006F11802AE68CEF820607760AA60CCF8DD
:1021F00028301C60BDE8F040FFF776BB4FF050037D
:1022000072B683F31188BFF36F8FBFF34F8F62B63F
:10221000FEE700BF98024020C368DB68002B58D05F
:102220009A6AD3E90701F0B4816003F118044860A9
:1022300000255068A0422C4808BF51601168006812
:1022400001399D621160D96AA8B1284A15685068A1
:102250000135D861156085681D626C6084609A6282
:10226000234B1B68DB6A8B4230D20123214A18467C
:102270001360F0BC70475A691E1D1F4DD3E9024020
:102280002F68A06044605468B4421C4C08BF506082
:10229000106801381060012001EB810288404FEA8C
:1022A000820C384304EB82022860556854F80C0015
:1022B000AF689D600130DF607E60AE605A610C4B9C
:1022C00044F80C001B68DB6A8B42CED30020F0BCC4
:1022D00070474FF0500372B683F31188BFF36F8FCE
:1022E000BFF34F8F62B6FEE748014020A0014020B7
:1022F000980240205C01402068014020E401402019
:10230000034A044B12681B68C0E90023704700BFF2
:10231000580140206C014020F8B500B30D4699B13A
:10232000044600F035FF224A224B1668196860689F
:1023300091F85B10F1B11B68002283F85B20012447
:1023400000F04CFF2046F8BD4FF0500372B683F307
:102350001188BFF36F8FBFF34F8F62B6FEE74FF068
:10236000500372B683F31188BFF36F8FBFF34F8FA3
:1023700062B6FEE72B68591C14D0DFF83CE02168F8
:10238000DEF80070B94201D0B0420DD9A6EB000CC6
:10239000634509D99B1BDEF80010126803442B60CB
:1023A000C4E900120024CBE700232B60C7E700BF7D
:1023B0006C0140209802402058014020014B01222E
:1023C0001A6070475C014020054B1B6833B1054B18
:1023D0001868B0FA80F0400940007047012070474B
:1023E000640140204801402030B3F8B5294B044631
:1023F0001B6883420AD04FF0500372B683F31188F2
:10240000BFF36F8FBFF34F8F62B6FEE79B6C43B194
:10241000C16A013B426C8364914200D073B10020D9
:10242000F8BD4FF0500372B683F31188BFF36F8F7E
:10243000BFF34F8F62B6FEE700207047051D2846A8
:10244000FFF73EFA144930B90122E06A0B68824076
:1024500023EA02030B60636C01200E68C3F10902DA
:10246000E3620E4FA26103EB830200FA03F34FEA2B
:10247000820E33430B6007EB820357F80E20596836
:1024800002448E68A160E66075608D60636147F804
:102490000E20F8BD9802402068014020E401402051
:1024A00070B51646026C0446856B2AB9066801357C
:1024B0002EB31046A56370BD7EB940680135FEF7A6
:1024C000A3FE6368216CA2680B449342636024BF3F
:1024D000236863600020A56370BDC068FEF794FEAA
:1024E000226CE36851429B1A22689342E36002D255
:1024F000A3680B44E360022E06D00135EAE780684A
:10250000FFF772FFA660D5E7012D4FF0000038BF3E
:102510000125CFE770B5846C82B00190ACB1A26B9D
:10252000E36B9A4206D2A26B934219D80025284643
:1025300002B070BD4FF0500372B683F31188BFF341
:102540006F8FBFF34F8F62B6FEE74FF0500372B646
:1025500083F31188BFF36F8FBFF34F8F62B6FEE72F
:1025600094F84560002201A9204676B2FFF798FF53
:102570000546731C0AD1636A002BD8D004F12400ED
:10258000FFF74AFE002818BF0125D0E7FFF798FDA6
:102590008642CCD27F2E04D0731C5BB284F84530C7
:1025A000C5E74FF0500372B683F31188BFF36F8F06
:1025B000BFF34F8F62B6FEE770B5054600F0E8FD49
:1025C00095F845305CB2002C1BDD05F1240606E0D1
:1025D000FFF7A0FF70B9631EDAB25CB28AB1AB6CD0
:1025E0002846002BF4D16B6A304653B1FFF714FE36
:1025F0000028F0D0FFF7E2FE631EDAB25CB2002AD8
:10260000EDD1FF2385F8453000F0E8FD00F0C0FD76
:1026100095F844305CB2002C14DD05F1100603E09F
:10262000631EDAB25CB26AB12B69304653B1FFF770
:10263000F3FD0028F4D0FFF7C1FE631EDAB25CB2EE
:10264000002AF1D1FF2385F84430BDE8704000F046
:10265000C5BD00BF68B370B5C56B0446F5B1026C6B
:10266000A2FB0525D5B90E4600F092FD2268A563B0
:102670006260D4E90F3101FB03F3591A13440A4491
:10268000A360FF23E26084F8443084F8453066BBE1
:102690002369CBB900F0A2FD012070BD4FF05003BB
:1026A00072B683F31188BFF36F8FBFF34F8F62B69B
:1026B000FEE74FF0500372B683F31188BFF36F8FBC
:1026C000BFF34F8F62B6FEE704F11000FFF7A4FDE1
:1026D0000028DFD04FF0E0234FF08052C3F8042DE4
:1026E000BFF34F8FBFF36F8FD4E704F11000FFF7F4
:1026F000BFF804F12400FFF7BBF8CBE770B548B191
:10270000A1FB002304460D4623B901FB00F010F1A4
:102710004D0F0AD94FF0500372B683F31188BFF3FF
:102720006F8FBFF34F8F62B6FEE74C3000F010FBA7
:10273000064658B165B100F14C03336001213046C3
:10274000F4633564FFF786FF0023B364304670BD41
:102750000346F2E7F0B585B00192002800F08980C9
:102760000E460446002942D0FFF72EFE00284CD02A
:1027700000F00EFDA56B002D40F08680019B8BB311
:102780002F4602A8FFF7BCFD00F028FDFFF772FC02
:1027900000F0FEFC94F84430FF2B01D184F8447023
:1027A00094F84530FF2B01D184F8457000F016FDF8
:1027B00001A902A8FFF7B0FD002834D100F0E8FC21
:1027C000A36B002B3CD000F009FD2046FFF7F4FE80
:1027D000FFF758FC00F0DCFCA56B002D54D1019BE9
:1027E000002BD1D100F0FAFC002005B0F0BD036C45
:1027F000002BB9D04FF0500372B683F31188BFF3AA
:102800006F8FBFF34F8F62B6FEE7019B002BAFD0F7
:102810004FF0500372B683F31188BFF36F8FBFF38D
:102820004F8F62B6FEE72046FFF7C6FEFFF72AFC91
:1028300000F0AEFCA36B002BD4D000F0CFFCC9E7B6
:1028400000F0CCFC019904F12400FFF795FC204630
:10285000FFF7B2FEFFF716FC0028BBD14FF0E023D4
:102860004FF08052C3F8042DBFF34F8FBFF36F8F2B
:10287000B0E74FF0500372B683F31188BFF36F8F48
:10288000BFF34F8F62B6FEE7226C52B1E168A368D6
:1028900011449942E16001D32168E1603046FEF7BE
:1028A000B3FC013D2369A5631BB900F097FC01202F
:1028B0009BE704F11000FFF7AFFC0028F5D04FF0C4
:1028C000E0234FF08052C3F8042DBFF34F8FBFF3C6
:1028D0006F8FEAE7F8B1E9B170B4164D00242B46CA
:1028E000224603E0013208330A2A0ED05E6886428F
:1028F0001CD0002CF6D155F832600132002E08BFF2
:102900001C460A2A03F10803F0D10CB1C4E90010F7
:1029100070BC704770474FF0500372B683F3118854
:10292000BFF36F8FBFF34F8F62B6FEE705EBC204B4
:10293000ECE700BFA002402070B504460E461546E5
:1029400000F026FC94F84430FF2B02D1002384F8D9
:10295000443094F84530FF2B02D1002384F84530F1
:1029600000F03CFCA36B23B12046BDE87040FFF7AC
:1029700023BE04F124002A463146FFF719FC204605
:10298000BDE87040FFF718BEF8B5104C00F000FC31
:1029900025681DB1BDE8F84000F020BC0C4F0D4E7D
:1029A0003846FEF765FF3046FEF762FF0A4B2A46BF
:1029B00010211F600A20094B1E60FFF79FFE206058
:1029C0000028E7D00649FFF785FFE3E7F80240203B
:1029D000180340200403402000034020FC02402054
:1029E000A43340002DE9F047DFF8849005460F46F8
:1029F000D9F80030DB68DC6804F104084046FEF7D3
:102A00005FFF94F824305A070DD423F001032046C9
:102A100084F82430236ABDE8F047184793421BD856
:102A20003546236A9847A3697A1B20462461EE182D
:102A30002CBF01210021B7426660EFD2AF4201D224
:102A40000029EDD0D9F800004146FEF721FF236AA6
:102A50002046BDE8F0471847044B41461868FEF78A
:102A600017FF236A2046BDE8F0471847FC024020C4
:102A7000000340202DE9F04F9D4D85B09D4F00266D
:102A8000DFF878829C4C2B68D3F800A0BAF1000FD5
:102A900000F0BB80DB68D3F800A0FFF7EBFAFFF78C
:102AA00009FB3B68814698423BD38245386000F27F
:102AB000D180FFF7E7FA49465046FFF793FFCDE98B
:102AC0000066CDE90266002269462068FFF742FEF3
:102AD0000028D8D0009B0298002BC0F28E80DDF831
:102AE0000890D9F814301BB109F10400FEF7E8FE94
:102AF000FFF7E0FA3B688246984226D3009BC7F86E
:102B000000A0013B082BDED8DFE803F02929674C41
:102B10006E2929674C00DB684FF0FF311868FFF71A
:102B200061FF2B681A68002AF5D1D8F80020C7F891
:102B30000090C8F800302A60FFF7A4FABFE7DB680E
:102B40004FF0FF311868FFF74DFF2B681A68002A15
:102B5000F5D1D8F80020C8F800302A60CEE799F8FF
:102B60002410019A41F00103D9F818C0C9F8109057
:102B700089F8243012EB0C032CBF012000205345B0
:102B8000C9F8043068D8AAEB0202944572D8480705
:102B900077D421F0010189F82410D9F82030484673
:102BA000984790E799F82420019B42F00102C9F868
:102BB000183089F82420002B00F08F80534409F14D
:102BC0000401C9F810905345C9F8043094BFD8F8EF
:102BD00000002868FEF75CFE75E799F8243023F0C2
:102BE000010389F824306EE799F824309A073DD51F
:102BF00023F0010389F8243065E7019B0399984786
:102C0000009B002BFFF65FAF69E7FFF733FAFFF792
:102C100051FA3B688146984283D3D8F80030C7F810
:102C200000901A68B2FA82F25209AAEB09012068F0
:102C3000FFF782FEFFF726FA00287FF440AF4FF03F
:102C4000E0224FF08053C2F8043DBFF34F8FBFF333
:102C50006F8F34E70022E8E7524501D9002896D06B
:102C600009F104012868FEF713FE2CE7484600F03E
:102C70005BF928E709F10401D8F80000FEF708FE27
:102C800021E7624607E08A4220D8D9F820309847E9
:102C9000D9F818205B4612EB030BAAEB0301484658
:102CA000C9F810902CBF4FF0010C4FF0000CDA4522
:102CB000C9F804B0E7D29A4502D2BCF1000FE4D0C3
:102CC00009F104012868FEF7E3FD66E709F1040154
:102CD000D8F80000FEF7DCFD5FE74FF0500372B656
:102CE00083F31188BFF36F8FBFF34F8F62B6FEE798
:102CF00000034020F0024020F8024020FC02402067
:102D000010B582B0FFF740FE0D4B1B685BB1082089
:102D10000C4C00234FF480720B49CDE900040B48A2
:102D2000FFF71EF850B94FF0500372B683F31188C5
:102D3000BFF36F8FBFF34F8F62B6FEE702B010BDD7
:102D4000F8024020F4024020AC334000752A4000D5
:102D5000F8B5431E0A3326D810F0070300F1080423
:102D60002DD1694EFFF786F923463268002A38D004
:102D7000002C1DDBDFF8A8E1DEF80070A74217D3B6
:102D80006249634D0B68AB4202D86248834241D22C
:102D90004FF0500372B683F31188BFF36F8FBFF308
:102DA0004F8F62B6FEE7584EFFF764F93368BBB148
:102DB0000026FFF767F9FEF791FC3046F8BDA3F156
:102DC0000902A242EFD310304F4EC41AFFF752F956
:102DD000326823462AB1002BEADB002CCAD1E7E790
:102DE0001C464C48450743D0C11D21F007010D4644
:102DF000494A002022F00702511A3260C2E900005D
:102E0000C5E90021414AC2E90050444A1160444AE0
:102E10001160E0E78C465968A14213D21A688AB162
:102E2000AA4201D882420AD24FF0500372B683F30D
:102E30001188BFF36F8FBFF34F8F62B6FEE79C46DA
:102E40001346E8E732689A42B2D0DCF8002002F17B
:102E50000806864201D3AE420DD94FF0500372B638
:102E600083F31188BFF36F8FBFF34F8F62B6FEE716
:102E700001460546BCE71868A142CCF800000AD21A
:102E80004FF0500372B683F31188BFF36F8FBFF317
:102E90004F8F62B6FEE70D1B102D12D91A1951077C
:102EA0000AD04FF0500372B683F31188BFF36F8FCF
:102EB000BFF34F8F62B6FEE7214655601851CCF83C
:102EC000002016487F1A41F0004104685960A7426B
:102ED0004FF00004CEF8007038BF076011481C6046
:102EE000026801320260FFF7CDF873073FF465AF67
:102EF0004FF0500372B683F31188BFF36F8FBFF3A7
:102F00004F8F62B6FEE700BF3C03402040034020E5
:102F1000470342204803402040034220340340201E
:102F20003803402030034020A0B1F0B5A0F10804E0
:102F3000404D83B0AC4202D33F4EB4420BD94FF068
:102F4000500372B683F31188BFF36F8FBFF34F8FB7
:102F500062B6FEE7704750F8043C002B0ADB4FF0E6
:102F6000500372B683F31188BFF36F8FBFF34F8F97
:102F700062B6FEE750F8082C52B14FF0500372B61B
:102F800083F31188BFF36F8FBFF34F8F62B6FEE7F5
:102F900023F000430190294F40F8043CFFF76AF802
:102FA000274A0198136850F8041C0B4413603B46F1
:102FB0001A461B689C42FBD8BA420ED0AA4201D3E3
:102FC000B2420AD94FF0500372B683F31188BFF3AF
:102FD0006F8FBFF34F8F62B6FEE755685619B44244
:102FE00010D06518AB421DD040F8083CA24218BF73
:102FF0001460144A13680133136003B0BDE8F04055
:10300000FFF740B82944501851608342F1D10E486F
:10301000006883420BD01446D3E900500144C4E950
:103020000051E3E7084D2D68AB42F5D1DCE71360B2
:10303000DFE700BF48034020470342204003402011
:10304000380340202C0340203C03402000000000B7
:10305000074B19680868B0E8F04F80F30988BFF3A0
:103060006F8F4FF0000080F311887047AFF300803E
:103070009802402008480068006880F308884FF0F4
:10308000000080F3148862B661B6BFF34F8FBFF3C0
:103090006F8F00DF00BF000008ED00E000000000BF
:1030A000EFF30980BFF36F8F154B1A681EF0100FF6
:1030B00008BF20ED108A20E9F04F10602DE90900CB
:1030C0004FF0500072B680F31188BFF34F8FBFF3FB
:1030D0006F8F62B6FEF7FAFF4FF0000080F31188A1
:1030E00009BC19680868B0E8F04F1EF0100F08BF5F
:1030F000B0EC108A80F30988BFF36F8F704700BF70
:1031000098024020DFF80C00016841F47001016072
:103110007047000088ED00E0104B82B000221B6871
:10312000019201330AD04FF0500372B683F3118835
:10313000BFF36F8FBFF34F8F62B6FEE74FF05003C0
:1031400072B683F31188BFF36F8FBFF34F8F62B6F0
:10315000019B002BFCD002B0704700BFB40342209B
:10316000034621F00101094810B44FF0807443F880
:103170000C0C43F8202CA3F1440043E902146FF037
:1031800002015DF8044B43F8241C704719314000DC
:103190004FF0500372B683F31188BFF36F8FBFF304
:1031A0004F8F62B60C4A13680133012B136000D0B5
:1031B00070474FF0E023D3F8043DDBB2002BF7D08B
:1031C0004FF0500372B683F31188BFF36F8FBFF3D4
:1031D0004F8F62B6FEE700BFB4034220094A13686E
:1031E00053B94FF0500372B683F31188BFF36F8F5A
:1031F000BFF34F8F62B6FEE7013B13600BB983F359
:1032000011887047B40342204FF0E02300220348A6
:1032100007211A619A615861196170477FA90300FB
:103220004FF0E0234B4AD3F8083DD96A91420AD0C7
:103230004FF0500372B683F31188BFF36F8FBFF363
:103240004F8F62B6FEE7444A9B6B93420AD04FF021
:10325000500372B683F31188BFF36F8FBFF34F8FA4
:1032600062B6FEE730B53D4B83B00022FF203C49FB
:1032700001921A78D2B28DF8022018701B78DBB256
:103280008DF803309DF8033003F050030B70002BD2
:1032900053D09DF80330DB4313F0500F13D04FF0A1
:1032A000500372B683F31188BFF36F8FBFF34F8F54
:1032B00062B6FEE7019B013301939DF803305B008A
:1032C000DBB28DF803309DF803301B06F2D4019B6E
:1032D000082B3DD0019BC3F107031B0203F4E063FD
:1032E0009DF802204FF0E0241E480025D2B21B4971
:1032F00003600A70D4F8203D43F47F03C4F8203DF6
:10330000D4F8203D43F07F43C4F8203DC4F81C5D51
:10331000FFF77AFF144B1D60FFF7F4FED4F8343F3B
:1033200043F04043C4F8343FFFF7A4FEFEF7CEFE5F
:103330002846FFF7F1FE03B030BD4FF0500372B6E0
:1033400083F31188BFF36F8FBFF34F8F62B6FEE731
:103350000023C5E751304000A130400000E400E008
:103360004C03422048034220B40342204C454420F1
:10337000546F67676C650000554152542054617367
:103380006B2052756E6E696E670000004C454420DC
:103390005461736B00000000554152542054617316
:1033A0006B000000546D725100000000546D7220DB
:1033B000537663000800000006000000500342201E
:1033C00028344000903440000000482090344000F1
:1033D0009434400000C04B209434400094344000AA
:1033E000000000200008400000084000000000002D
:1033F0009434400094344000000000209434400095
:10340000943440000300000000C04B2000C04B205B
:1034100010004820100048200000402050034220A7
:08342000E8DDFF7F0100000060
:103428000000000000000000030000000000402031
:103438006403422000000000000040206800402093
:10344800D000402000000000000000000000000044
:103458000000000000000000000000000000000064
:103468000000000000000000000000000000000054
:103478000000000000000000000000000000000044
:08348800B8034220AAAAAAAA77
:043490000000000038
:04000005004008109F
:00000001FF
