:100000000000442085004000D1004000D1004000A5
:10001000D1004000D1004000D100400000000000AD
:10002000000000000000000000000000410440004B
:10003000D10040000000000071044000D9044000DD
:08004000D1004000D100400096
:020000040040BA
:1000000080B489B000AF194BBB61194B7B61194BB0
:100010003B61194BFB60BB6901221A607B69174A7F
:100020001A60BB6902221A603B694FF440221A60D1
:10003000134BBB60BB68FB6111E0FB695A1CFA61A2
:100040001B781A46FB681A6000237B6002E07B681D
:1000500001337B607B6842F20F729342F7DDFB69EC
:100060001B78002BE9D100BFFDE700BF080000406E
:1000700010000040180000401C0000403400000F39
:10008000200540000D4D0E4C05E02A46151D234667
:100090001C1D12681A600B4B9C42F6D30A4C03E0FD
:1000A00023461C1D00221A60084B9C42F8D300F026
:1000B00013F8FFF7A5FF00BFFDE700BF08064000EB
:1000C000000041200800412008004120E8004120B4
:1000D00080B400AF00BFFDE7064B074A9A60D3F833
:1000E000882042F47002C3F88820044B044A1A6046
:1000F000704700BF00ED00E000000000000041205C
:1001000040787D0180B58AB000AF00237B62804BD0
:100110001B68002B40F0F1807E4B1B6801333B6273
:100120007C4A3B6A13603B6A002B23D17A4B1B68E5
:100130001B68002B0DD04FF0500372B683F311886B
:10014000BFF36F8FBFF34F8F62B67B6000BF00BFFE
:10015000FDE7714B1B68FB61704B1B686E4A1360B7
:100160006E4AFB6913606E4B1B6801336C4A136067
:1001700000F044F96B4B1B683A6A9A42C0F0A880C1
:10018000654B1B681B68002B04D1664B4FF0FF3298
:100190001A609DE0604B1B68DB68DB68BB61BB6974
:1001A0005B687B613A6A7B699A4203D25D4A7B69EC
:1001B00013608DE0BB695B693B61BB699B68BA6991
:1001C000D2689A60BB69DB68BA6992685A603B6919
:1001D0005A68BB6904339A4203D1BB69DA683B6948
:1001E0005A60BB6900225A613B691B685A1E3B6911
:1001F0001A60BB699B6A002B1ED0BB699B6AFB60BF
:10020000BB69DB69BA69126A9A60BB691B6ABA6921
:10021000D2695A60FB685A68BB6918339A4203D1A5
:10022000BB691A6AFB685A60BB6900229A62FB6864
:100230001B685A1EFB681A60BB69DB6A01229A4080
:10024000394B1B681343384A1360BB69DA6A374974
:1002500013469B0013449B000B4404331B68BB6094
:10026000BB69BA689A60BB689A68BB69DA60BB68A8
:100270009B68BA6904325A60BB691A1DBB689A60F0
:10028000BB69DA6A13469B0013449B00274A1A4451
:10029000BB695A61BB69DA6A244913469B0013445F
:1002A0009B000B441B68BA69D26A591C1F4813464D
:1002B0009B0013449B0003441960BB69DA6A1C4B22
:1002C0001B68DB6A9A427FF65BAF01237B6257E7CC
:1002D000174B1B68DA6A154913469B0013449B00B1
:1002E0000B441B68012B01D901237B62114B1B6856
:1002F000002B07D001237B6204E00F4B1B68013306
:100300000D4A13607B6A18462837BD4680BD00BF82
:10031000E0004120C8004120C0004120C40041202D
:10032000D8004120DC004120CC0041200C004120BD
:1003300008004120D4004120D000412080B487B083
:1003400000AF294B1B68002B03D0284B01221A60F9
:1003500043E0264B00221A60254B1B68FB60FB68BC
:10036000B3FA83F3FB72FB7AC3F11F037B6121496C
:100370007A6913469B0013449B000B441B68002BB7
:100380000DD14FF0500372B683F31188BFF36F8F16
:10039000BFF34F8F62B67B6000BF00BFFDE77A6995
:1003A00013469B0013449B00124A13443B613B6974
:1003B0005B685A683B695A603B695A683B69083315
:1003C0009A4203D13B69DA683B695A603B695B68D2
:1003D000DB68094A1360084B1B6800BF1C37BD4629
:1003E0005DF8047B704700BFE0004120D40041204D
:1003F000CC0041200C0041200800412080B400AF17
:100400000A4B1B681B68002B04D1094B4FF0FF32CD
:100410001A6005E0054B1B68DB681B68044A136023
:1004200000BFBD465DF8047B704700BFC00041209F
:10043000DC0041200000000000000000000000007F
:10044000074B19680868B0E8F04F80F30988BFF3DC
:100450006F8F4FF0000080F311887047AFF300807A
:100460000800412000BF00BF0000000000000000A5
:10047000EFF30980BFF36F8F154B1A681EF0100F52
:1004800008BF20ED108A20E9F04F10602DE9090027
:100490004FF0500072B680F31188BFF34F8FBFF357
:1004A0006F8F62B6FFF74AFF4FF0000080F31188AC
:1004B00009BC19680868B0E8F04F1EF0100F08BFBB
:1004C000B0EC108A80F30988BFF36F8F704700BFCC
:1004D0000800412000BF00BF80B582B000AF4FF0E0
:1004E000500372B683F31188BFF36F8FBFF34F8F42
:1004F00062B67B6000BFFFF705FE0346002B03D00A
:10050000064B4FF080521A6000233B603B6883F338
:10051000118800BF00BF0837BD4680BD04ED00E074
:1005200048656C6C6F2066726F6D205333324B33AD
:100530005838455642210D0A000000001000000006
:1005400000000000017A5200027C0E011B0C0D001D
:100550001C0000001800000000000000D80000008F
:1005600000410E088501840202490A4AC5C4410BB4
:100570001000000000000000017A5200027C0E0111
:100580001B0C0D001400000018000000000000000B
:0C059000340100000002710A430B00005F
:10059C0000004120000000000100000000000000ED
:1005AC0008004120000000001C00000000000000BA
:1005BC00E8004120000000000002000000000000E4
:1005CC0000F04320000000000002000000000000CA
:1005DC0000000000000000000020000000000000EF
:1005EC00000000200000000000400000000000009F
:0C05FC0008064000000041200200000042
:0806080040787D0100000000B4
:040000050040008532
:00000001FF
