:1000000000004420B9014000050240000502400004
:10001000050240000502400005024000000000000B
:10002000000000000000000000000000A1284000C7
:100030000502400000000000612B4000C92B400079
:0800400005024000050240002A
:020000040040BA
:1000000080B400AF0F4B1B680E4A43F0010313602E
:100010000C4B1B680B4A43F0020313600A4B1B682E
:10002000094A43F088031360084B00221A60084B0A
:100030001B68074A43F44023136000BFBD465DF8C8
:10004000047B704708A0044028A004402CA0044072
:1000500018A0044080B483B000AF0346FB7100BF1A
:10006000074B1B6803F40003002BF9D0054AFB790A
:10007000136000BF0C37BD465DF8047B704700BFBE
:1000800014A004401CA0044080B582B000AF78608A
:1000900007E07B681B781846FFF7DCFF7B680133BD
:1000A0007B607B681B78002BF3D100BF054B1B687E
:1000B00003F48003002BF9D000BF00BF0837BD4612
:1000C00080BD00BF14A0044080B582B000AF78604E
:1000D0000548FFF7D9FF0548FFF7D6FF4FF47A70C0
:1000E00000F0CAFA00BFF3E7382E4000742E40003B
:1000F00080B582B000AF78600548FFF7C5FF0548BE
:10010000FFF7C2FF4FF47A7000F0B6FA00BFF3E7D2
:10011000382E4000B02E400080B582B002AFFFF70D
:100120006FFF1C48FFF7B0FF1B48FFF7ADFF002330
:1001300001930223009300234FF48072174918485B
:1001400000F04EF90346012B04D01648FFF79CFF40
:1001500001231BE0002301930123009300234FF4AC
:1001600080721149114800F03BF90346012B04D07D
:100170000C48FFF789FF012308E00D48FFF784FFD3
:1001800000F0FEFA0B48FFF77FFF01231846BD463B
:1001900080BD00BFEC2E4000102F4000282F4000F3
:1001A000C9004000302F4000542F4000F1004000B3
:1001B0005C2F4000842F40000D4D0E4C05E02A4678
:1001C000151D23461C1D12681A600B4B9C42F6D36A
:1001D0000A4C03E023461C1D00221A60084B9C4277
:1001E000F8D300F013F8FFF797FF00BFFDE700BF5B
:1001F000A8304000000041200800412008004120B4
:100200001002432080B400AF00BFFDE780B400AF10
:10021000094B0A4A9A60084BD3F88830064A43F4DF
:100220007003C2F88830064B064A1A6000BFBD460C
:100230005DF8047B704700BF00ED00E000000000A7
:100240000000412040787D0180B483B000AF786029
:100250007B6803F108027B685A607B684FF0FF32CD
:100260009A607B6803F108027B68DA607B6803F1BF
:1002700008027B681A617B6800221A6000BF0C3795
:10028000BD465DF8047B704780B483B000AF7860F2
:100290007B6800221A6100BF0C37BD465DF8047B05
:1002A000704780B485B000AF786039603B681B68E8
:1002B000BB60BB68B3F1FF3F03D17B681B69FB6088
:1002C0000CE07B680833FB6002E0FB685B68FB6066
:1002D000FB685B681B68BA689A42F6D2FB685A688A
:1002E0003B685A603B685B683A689A603B68FA68AA
:1002F0009A60FB683A685A603B687A681A617B6862
:100300001B685A1C7B681A6000BF1437BD465DF835
:10031000047B704780B485B000AF78607B681B6950
:10032000FB607B685B687A6892689A607B689B6810
:100330007A6852685A60FB685B687A689A4203D1AF
:100340007B689A68FB685A607B6800221A61FB68C8
:100350001B685A1EFB681A60FB681B681846143736
:10036000BD465DF8047B704780B58AB004AFF86085
:10037000B9607A603B607B689B00184601F090FF93
:1003800038613B69002B13D05C2001F089FF786154
:100390007B69002B08D05C220021786902F060FCA8
:1003A0007B693A691A6305E0386902F0BDF801E03B
:1003B00000237B617B69002B0DD0002303937B69B5
:1003C00002937B6A01933B6A00933B687A68B96841
:1003D000F86800F028F87B6918461837BD4680BDDC
:1003E00080B588B002AFF860B9607A603B607B6A24
:1003F00001933B6A00933B687A68B968F868FFF735
:10040000B3FF38613B69002B05D0386900F0A0F8D4
:1004100001237B6102E04FF0FF337B617B6918466B
:100420001837BD4680BD80B588B000AFF860B960B0
:100430007A603B603B6B186B7B689B001A46A5217A
:1004400002F00EFC3B6B1A6B79686FF040430B4473
:100450009B001344BB61BB6923F00703BB61BB690D
:1004600003F00703002B0DD04FF0500372B683F357
:100470001188BFF36F8FBFF34F8F62B67B6100BFF0
:1004800000BFFDE7BB68002B1ED00023FB6112E01C
:10049000BA68FB69134419783A6BFB691344343327
:1004A0000A461A70BA68FB6913441B78002B06D001
:1004B000FB690133FB61FB690F2BE9D900E000BF49
:1004C0003B6B002283F84320BB6A082B0DD94FF009
:1004D000500372B683F31188BFF36F8FBFF34F8F52
:1004E00062B63B6100BF00BFFDE7BB6A082B01D9C4
:1004F0000823BB623B6BBA6ADA623B6BBA6A5A6426
:100500003B6B04331846FFF7BFFE3B6B18331846AE
:10051000FFF7BAFE3B6B3A6B1A61BB6AC3F1090283
:100520003B6B9A613B6B3A6B5A623A68F968B869FF
:1005300002F04CF902463B6B1A60FB6A002B02D0BA
:10054000FB6A3A6B1A6000BF2037BD4680BD0000D1
:1005500080B584B000AF786002F09CFA3F4B1B6816
:1005600001333E4A13603E4B1B68002B09D13C4AC5
:100570007B681360394B1B68012B10D100F0FAFD2A
:100580000DE0384B1B68002B09D1354B1B68DA6A2C
:100590007B68DB6A9A4202D8314A7B681360324B2F
:1005A0001B680133304A13607B68DB6A01229A4082
:1005B0002E4B1B6813432D4A13607B68DA6A2C4963
:1005C00013469B0013449B000B4404331B68FB60E1
:1005D0007B68FA689A60FB689A687B68DA60FB68F7
:1005E0009B687A6804325A607B681A1DFB689A60BF
:1005F0007B68DA6A13469B0013449B001C4A1A442A
:100600007B685A617B68DA6A194913469B00134478
:100610009B000B441B687A68D26A591C1448134625
:100620009B0013449B000344196002F069FA0D4BD0
:100630001B68002B0ED00A4B1B68DA6A7B68DB6AEA
:100640009A4207D20B4B4FF080521A60BFF34F8F84
:10065000BFF36F8F00BF1037BD4680BD3001412012
:10066000080041203C0141204C014120380141203B
:100670000C00412004ED00E080B584B000AF78604C
:100680000023FB607B68002B1AD000F0C1F8144BEC
:100690001B68012B0DD04FF0500372B683F3118805
:1006A000BFF36F8FBFF34F8F62B6BB6000BF00BF59
:1006B000FDE70021786800F0C1FE00F0B7F8F860AF
:1006C000FB68002B07D1074B4FF080521A60BFF335
:1006D0004F8FBFF36F8F00BF1037BD4680BD00BF87
:1006E0005801412004ED00E080B58AB002AF01233B
:1006F000FB6100233B6100237B6111E01D4A7B69A4
:10070000134419783A467B6913440A461A703A46EC
:100710007B6913441B78002B06D07B6901337B6116
:100720007B690F2BEADD00E000BF0023BB6116E010
:10073000114B3B61BB699B00104A1344394601933E
:100740000023009300234FF480723869FFF748FEBE
:10075000F861FB69002B06D0BB690133BB61BB6943
:10076000002BE5DD00E000BFFB6918462037BD46E1
:1007700080BD00BFBC2F4000451140005401412006
:1007800080B584B000AFFFF7AFFFF860FB68012BC6
:1007900002D101F0D1FAF860FB68012B18D14FF0BB
:1007A000500372B683F31188BFF36F8FBFF34F8F7F
:1007B00062B6BB6000BF124B4FF0FF321A60114BA4
:1007C00001221A60104B00221A6002F093F811E027
:1007D000FB68B3F1FF3F0DD14FF0500372B683F3C6
:1007E0001188BFF36F8FBFF34F8F62B67B6000BF7E
:1007F00000BFFDE7054B1B6800BF1037BD4680BD3D
:10080000500141203C01412034014120B82F4000DB
:1008100080B400AF044B1B680133034A136000BF70
:10082000BD465DF8047B70475801412080B588B013
:1008300000AF0023FB610023BB6102F02BF9002312
:100840003B61764B1B68002B0DD14FF0500372B605
:1008500083F31188BFF36F8FBFF34F8F62B63B6096
:1008600000BF00BFFDE76D4B1B68013B6B4A136087
:100870006A4B1B68002B40F0CA80694B1B68002B39
:1008800000F0C5808EE0674BDB68DB68FB61FB69CD
:100890009B6AFB60FB69DB69FA69126A9A60FB6913
:1008A0001B6AFA69D2695A60FB685A68FB69183397
:1008B0009A4203D1FB691A6AFB685A60FB690022FD
:1008C0009A62FB681B685A1EFB681A60FB695B69C9
:1008D000BB60FB699B68FA69D2689A60FB69DB6858
:1008E000FA6992685A60BB685A68FB6904339A4295
:1008F00003D1FB69DA68BB685A60FB6900225A6160
:10090000BB681B685A1EBB681A60FB69DB6A012260
:100910009A40454B1B681343434A1360FB69DA6AEC
:10092000424913469B0013449B000B4404331B684D
:100930007B60FB697A689A607B689A68FB69DA6019
:100940007B689B68FA6904325A60FB691A1D7B68F0
:100950009A60FB69DA6A13469B0013449B00334A92
:100960001A44FB695A61FB69DA6A304913469B00F5
:1009700013449B000B441B68FA69D26A591C2B482C
:1009800013469B0013449B0003441960FB69DA6A19
:10099000274B1B68DB6A9A4204D9264A3B6901212E
:1009A00042F823101F4B1B68002B7FF46CAFFB69D0
:1009B000002B01D000F05CFC1F4B1B687B617B6946
:1009C000002B12D000F058F80346002B04D0194A2F
:1009D0003B69012142F823107B69013B7B617B6904
:1009E000002BEFD1144B00221A60124A3B6952F8D7
:1009F0002330002B0BD00123BB610D4B1B680F4B29
:100A00004FF080521A60BFF34F8FBFF36F8F02F029
:100A100077F8BB6918462037BD4680BD5801412094
:100A200030014120F0004120380141200C004120DC
:100A300008004120440141204001412004ED00E034
:100A400080B483B000AF054B1B687B607B681846A1
:100A50000C37BD465DF8047B704700BF3401412070
:100A600080B400AF034B1B681846BD465DF8047B9D
:100A7000704700BF3001412080B58AB000AF00232D
:100A80007B62804B1B68002B40F0F1807E4B1B6823
:100A900001333B627C4A3B6A13603B6A002B23D1E3
:100AA0007A4B1B681B68002B0DD04FF0500372B6B9
:100AB00083F31188BFF36F8FBFF34F8F62B67B60F4
:100AC00000BF00BFFDE7714B1B68FB61704B1B68EB
:100AD0006E4A13606E4AFB6913606E4B1B680133EC
:100AE0006C4A136000F0C4FB6B4B1B683A6A9A4275
:100AF000C0F0A880654B1B681B68002B04D1664BB7
:100B00004FF0FF321A609DE0604B1B68DB68DB68CA
:100B1000BB61BB695B687B613A6A7B699A4203D2BD
:100B20005D4A7B6913608DE0BB695B693B61BB69B2
:100B30009B68BA69D2689A60BB69DB68BA699268D7
:100B40005A603B695A68BB6904339A4203D1BB6956
:100B5000DA683B695A60BB6900225A613B691B68CD
:100B60005A1E3B691A60BB699B6A002B1ED0BB6989
:100B70009B6AFB60BB69DB69BA69126A9A60BB69F0
:100B80001B6ABA69D2695A60FB685A68BB69183334
:100B90009A4203D1BB691A6AFB685A60BB6900229A
:100BA0009A62FB681B685A1EFB681A60BB69DB6AA5
:100BB00001229A40394B1B681343384A1360BB69C2
:100BC000DA6A374913469B0013449B000B440433F5
:100BD0001B68BB60BB69BA689A60BB689A68BB69EE
:100BE000DA60BB689B68BA6904325A60BB691A1D37
:100BF000BB689A60BB69DA6A13469B0013449B008A
:100C0000274A1A44BB695A61BB69DA6A2449134608
:100C10009B0013449B000B441B68BA69D26A591CA1
:100C20001F4813469B0013449B0003441960BB6993
:100C3000DA6A1C4B1B68DB6A9A427FF65BAF0123C2
:100C40007B6257E7174B1B68DA6A154913469B000E
:100C500013449B000B441B68012B01D901237B62C9
:100C6000114B1B68002B07D001237B6204E00F4B64
:100C70001B6801330D4A13607B6A18462837BD464E
:100C800080BD00BF5801412034014120E8004120CF
:100C9000EC00412048014120500141203801412011
:100CA0000C00412008004120440141204001412026
:100CB00080B487B000AF294B1B68002B03D0284BB2
:100CC00001221A6043E0264B00221A60254B1B6864
:100CD000FB60FB68B3FA83F3FB72FB7AC3F11F037B
:100CE0007B6121497A6913469B0013449B000B44A6
:100CF0001B68002B0DD14FF0500372B683F311889F
:100D0000BFF36F8FBFF34F8F62B67B6000BF00BF32
:100D1000FDE77A6913469B0013449B00124A134473
:100D20003B613B695B685A683B695A603B695A683A
:100D30003B6908339A4203D13B69DA683B695A60E0
:100D40003B695B68DB68094A1360084B1B6800BF9E
:100D50001C37BD465DF8047B704700BF5801412039
:100D600044014120380141200C004120080041206D
:100D700080B584B000AF786039607B68002B0DD1FE
:100D80004FF0500372B683F31188BFF36F8FBFF338
:100D90004F8F62B6FB6000BF00BFFDE7074B1B68CB
:100DA000183319467868FFF77CFA0121386800F09B
:100DB00045FB00BF1037BD4680BD00BF0800412085
:100DC00080B586B000AFF860B9607A60FB68002B30
:100DD0000DD14FF0500372B683F31188BFF36F8FBC
:100DE000BFF34F8F62B63B6100BF00BFFDE7FB68FA
:100DF0005B687B61154B1B687A69DA61134B1B6872
:100E00007A6992681A62114B1A687B699B6818327A
:100E10005A600E4B1B6803F118027B699A600B4BFA
:100E20001B68FA689A62FB681B685A1CFB681A60A8
:100E30007B68002B02D04FF0FF33BB607968B86845
:100E400000F0FCFA00BF1837BD4680BD0800412005
:100E500080B48BB000AF78607B68DB68DB683B6296
:100E60003B6A002B0DD14FF0500372B683F311880B
:100E7000BFF36F8FBFF34F8F62B6FB6000BF00BF41
:100E8000FDE73B6A9B6AFB613B6ADB693A6A126A6F
:100E90009A603B6A1B6A3A6AD2695A60FB695A686F
:100EA0003B6A18339A4203D13B6A1A6AFB695A605B
:100EB0003B6A00229A62FB691B685A1EFB691A6032
:100EC0004B4B1B68002B60D13B6A5B697B613B6AC3
:100ED0009B683A6AD2689A603B6ADB683A6A9268B1
:100EE0005A607B695A683B6A04339A4203D13B6A71
:100EF000DA687B695A603B6A00225A617B691B6829
:100F00005A1E7B691A603B6ADB6A01229A40394BA0
:100F10001B681343374A13603B6ADA6A3649134643
:100F20009B0013449B000B4404331B683B613B6AEA
:100F30003A699A603B699A683B6ADA603B699B68E8
:100F40003A6A04325A603B6A1A1D3B699A603B6AEE
:100F5000DA6A13469B0013449B00274A1A443B6AF3
:100F60005A613B6ADA6A244913469B0013449B008A
:100F70000B441B683A6AD26A591C1F4813469B00EF
:100F800013449B00034419601BE01C4B5B68BB616E
:100F90003B6ABA69DA61BB699A683B6A1A62BB69E3
:100FA0009B683A6A18325A603B6A03F11802BB69BF
:100FB0009A603B6A114A9A62104B1B6801330F4AD0
:100FC00013603B6ADA6A0E4B1B68DB6A9A4205D9EA
:100FD00001237B620B4B01221A6001E000237B623C
:100FE0007B6A18462C37BD465DF8047B704700BF0E
:100FF00058014120380141200C004120F0004120DF
:10100000080041204401412080B483B000AF7860E3
:10101000064B1A687B681A60054B1A687B685A6031
:1010200000BF0C37BD465DF8047B70474801412086
:101030003401412080B588B000AF786039607B68AA
:10104000002B0DD14FF0500372B683F31188BFF31C
:101050006F8FBFF34F8F62B63B6100BF00BFFDE7EC
:101060003B68002B0DD14FF0500372B683F311880B
:10107000BFF36F8FBFF34F8F62B6FB6000BF00BF3F
:10108000FDE701F007FD264B1B68BB617B685B68D1
:10109000BA69D31A7B61234B1B6893F85B30002B32
:1010A00007D0204B1B68002283F85B200123FB61E3
:1010B0002EE03B681B68B3F1FF3F02D10023FB61C8
:1010C00026E07B681A68184B1B689A420AD07B6836
:1010D0005B68BA699A4205D30123FB613B68002231
:1010E0001A6015E03B681B687A699A420BD23B682C
:1010F0001A687B69D21A3B681A607868FFF784FF28
:101100000023FB6104E03B6800221A600123FB61BD
:1011100001F0F6FCFB6918462037BD4680BD00BFD4
:1011200034014120080041204801412080B400AF33
:10113000034B01221A6000BFBD465DF8047B704777
:101140004401412080B582B000AF786000F052F8D1
:10115000064B1B68012BF9D9054B4FF080521A60E2
:10116000BFF34F8FBFF36F8FF0E700BF0C0041203C
:1011700004ED00E080B582B000AF00237B600CE09E
:101180007A6813469B0013449B00124A1344184686
:10119000FFF75AF87B6801337B607B68082BEFD937
:1011A0000D48FFF751F80D48FFF74EF80C48FFF7D0
:1011B0004BF80C48FFF748F80B48FFF745F80B4B86
:1011C000054A1A600A4B054A1A6000BF0837BD4637
:1011D00080BD00BF0C004120C0004120D400412050
:1011E000F0004120040141201C014120E800412081
:1011F000EC00412080B582B000AF19E001F04AFC5C
:10120000104BDB68DB687B607B6804331846FFF7B4
:1012100081F80D4B1B68013B0B4A13600B4B1B689D
:10122000013B0A4A136001F06BFC786800F010F88B
:10123000064B1B68002BE1D100BF00BF0837BD463D
:1012400080BD00BF04014120300141201801412030
:1012500080B582B000AF78607B681B6B184601F0E8
:1012600063F9786801F060F900BF0837BD4680BDBA
:1012700080B400AF0A4B1B681B68002B04D1094BDC
:101280004FF0FF321A6005E0054B1B68DB681B68F6
:10129000044A136000BFBD465DF8047B704700BF81
:1012A000E80041205001412080B483B000AF0B4BD7
:1012B0001B68002B02D101237B6008E0084B1B68F0
:1012C000002B02D102237B6001E000237B607B685E
:1012D00018460C37BD465DF8047B70473C01412041
:1012E0005801412080B588B000AF78607B68BB6151
:1012F0000023FB617B68002B00F094804C4B1B6843
:10130000BA699A420DD04FF0500372B683F3118838
:10131000BFF36F8FBFF34F8F62B63B6100BF00BF5B
:10132000FDE7BB699B6C002B0DD14FF0500372B6EB
:1013300083F31188BFF36F8FBFF34F8F62B6FB60EB
:1013400000BF00BFFDE7BB699B6C5A1EBB699A6476
:10135000BB69DA6ABB695B6C9A4263D0BB699B6C00
:10136000002B5FD1BB6904331846FEF7D3FF034659
:10137000002B0AD1BB69DB6A012202FA03F3DA43CC
:101380002C4B1B6813402B4A1360BB695A6CBB691A
:10139000DA62BB69DB6AC3F10902BB699A61BB69A6
:1013A000DB6A01229A40234B1B681343214A1360D6
:1013B000BB69DA6A204913469B0013449B000B4427
:1013C00004331B687B61BB697A699A607B699A68A0
:1013D000BB69DA607B699B68BA6904325A60BB6991
:1013E0001A1D7B699A60BB69DA6A13469B00134435
:1013F0009B00114A1A44BB695A61BB69DA6A0E49FB
:1014000013469B0013449B000B441B68BA69D26AC5
:10141000591C094813469B0013449B000344196060
:101420000123FB61FB6918462037BD4680BD00BF24
:1014300008004120380141200C00412080B588B0CF
:1014400000AF78603960394B1B68FB61384B1B6813
:10145000BB61384B1B687B61374B1B68002283F8EC
:101460005B20354B1B6804331846FEF753FF0346D9
:10147000002B0BD1304B1B68DB6A012202FA03F30D
:10148000DA432E4B1B6813402C4A13607B68B3F180
:10149000FF3F24D13B68002B21D0294B5B683B6187
:1014A000254B1B683A699A60234B1B683A6992681E
:1014B000DA60214B1A683B699B6804325A601E4B04
:1014C0001B681A1D3B699A601B4B1B681C4A5A61BA
:1014D0001B4B1B6801331A4A136000BF22E0FA69F4
:1014E0007B681344FB60144B1B68FA685A60FA6807
:1014F000FB699A4207D2104B1B680433194678697E
:10150000FEF7CFFE0EE00C4B1B6804331946B8699A
:10151000FEF7C7FE0B4B1B68FA689A4202D2094AD3
:10152000FB68136000BF2037BD4680BD34014120F9
:10153000E8004120EC004120080041203801412012
:101540001C0141205001412080B586B000AF786079
:10155000396001237B617B683B613B69002B0DD1C6
:101560004FF0500372B683F31188BFF36F8FBFF350
:101570004F8F62B6FB6000BF00BFFDE73B69002BE9
:101580005DD03B69DB6B002B59D03B691A6C3B6922
:10159000DB6B0021A3FB0223002B00D001210B46B3
:1015A000002B4CD101F076FA3B691A683B69DB6B82
:1015B0003969096C01FB03F31A443B699A603B6982
:1015C00000229A633B691A683B695A603B691A6852
:1015D0003B69DB6B013B3969096C01FB03F31A447E
:1015E0003B69DA603B69FF2283F844203B69FF22B4
:1015F00083F845203B68002B14D13B691B69002B05
:101600001AD03B6910331846FFF722FC0346002B23
:1016100012D0174B4FF080521A60BFF34F8FBFF3B9
:101620006F8F09E03B6910331846FEF70DFE3B69EA
:1016300024331846FEF708FE01F062FA01E00023A9
:101640007B617B69002B0DD14FF0500372B683F3A1
:101650001188BFF36F8FBFF34F8F62B6BB6000BFBF
:1016600000BFFDE77B6918461837BD4680BD00BF47
:1016700004ED00E080B58AB002AFF860B9601346AF
:10168000FB710023FB61FB68002B2ED00021BA68A0
:10169000FB68A3FB0223002B00D001210B46002B8B
:1016A00023D1FB68BA6802FB03F313F14D0F1CD87A
:1016B000FB68BA6802FB03F3BB61BB694C33184695
:1016C00000F0EEFDF861FB69002B1FD0FB697B6128
:1016D0007B694C337B61FA79FB69009313467A6925
:1016E000B968F86800F017F810E0FB69002B0DD11D
:1016F0004FF0500372B683F31188BFF36F8FBFF3BF
:101700004F8F62B63B6100BF00BFFDE7FB69184623
:101710002037BD4680BD80B584B000AFF860B960A9
:101720007A60FB70BB68002B03D1BB69BA691A6091
:1017300002E0BB697A681A60BB69FA68DA63BB6960
:10174000BA681A640121B869FFF7FEFEBB6900227E
:101750009A6400BF1037BD4680BD000080B58CB0D4
:1017600000AFF860B9607A600023FB62FB68BB627F
:10177000BB6A002B0DD14FF0500372B683F3118872
:10178000BFF36F8FBFF34F8F62B63B6200BF00BFE6
:10179000FDE7BB68002B03D1BB6A1B6C002B01D19A
:1017A000012300E00023002B0DD14FF0500372B64F
:1017B00083F31188BFF36F8FBFF34F8F62B6FB6166
:1017C00000BF00BFFDE7FFF76FFD0346002B02D10E
:1017D0007B68002B01D1012300E00023002B0DD1F9
:1017E0004FF0500372B683F31188BFF36F8FBFF3CE
:1017F0004F8F62B6BB6100BF00BFFDE701F04AF941
:10180000BB6A9B6B7B627B6A002B1FD0B968B86A8E
:1018100000F0F6F87B6A5A1EBB6A9A63BB6A1B69C2
:10182000002B0FD0BB6A10331846FFF711FB03469D
:10183000002B07D03C4B4FF080521A60BFF34F8F04
:10184000BFF36F8F01F05CF9012369E07B68002B27
:1018500003D101F055F9002362E0FB6A002B06D1A9
:1018600007F110031846FFF7CFFB0123FB6201F0DD
:1018700047F9FEF7CDFF01F00DF9BB6A93F844304C
:101880005BB2B3F1FF3F03D1BB6A002283F844206F
:10189000BB6A93F845305BB2B3F1FF3F03D1BB6A3B
:1018A000002283F8452001F02BF93A1D07F11003BF
:1018B00011461846FFF7BEFB0346002B23D1B86A3A
:1018C00000F023F90346002B17D0BB6A24337A6853
:1018D00011461846FFF74CFAB86A00F0B7F8FEF761
:1018E000A5FF0346002B89D10F4B4FF080521A60A1
:1018F000BFF34F8FBFF36F8F80E7B86A00F0A6F891
:10190000FEF794FF7AE7B86A00F0A0F8FEF78EFFC2
:10191000B86A00F0FAF80346002B3FF46FAF0023DB
:1019200018463037BD4680BD04ED00E080B586B076
:1019300000AFF860B9607A6000237B61FB689B6B45
:101940003B61FB681B6C002B0DD1FB681B68002BF7
:101950004DD1FB689B681846FFF7C4FC7861FB68B3
:1019600000229A6043E07B68002B19D1FB6858681D
:10197000FB681B6C1A46B96801F0C4F9FB685A6829
:10198000FB681B6C1A44FB685A60FB685A68FB686A
:101990009B689A422BD3FB681A68FB685A6026E062
:1019A000FB68D868FB681B6C1A46B96801F0AAF995
:1019B000FB68DA68FB681B6C5B421A44FB68DA6000
:1019C000FB68DA68FB681B689A4207D2FB689A6872
:1019D000FB681B6C5B421A44FB68DA607B68022B75
:1019E00005D13B69002B02D03B69013B3B613B6960
:1019F0005A1CFB689A637B6918461837BD4680BD40
:101A000080B582B000AF786039607B681B6C002BBA
:101A100018D07B68DA687B681B6C1A447B68DA60D4
:101A20007B68DA687B689B689A4203D37B681A6894
:101A30007B68DA607B68D9687B681B6C1A463868FB
:101A400001F060F900BF0837BD4680BD80B584B0A5
:101A500000AF786001F01EF87B6893F84530FB73A7
:101A60001EE07B689B6C002B08D0786800F0EAF8D9
:101A70000346002B10D0FFF759FB0DE07B685B6A33
:101A8000002B12D07B6824331846FFF7E1F9034698
:101A9000002B01D0FFF74AFBFB7B013BDBB2FB7362
:101AA00097F90F30002BDCDC00E000BF7B68FF22E1
:101AB00083F8452001F024F800F0ECFF7B6893F8F0
:101AC0004430BB7311E07B681B69002B12D07B682C
:101AD00010331846FFF7BCF90346002B01D0FFF77F
:101AE00025FBBB7B013BDBB2BB7397F90E30002BB0
:101AF000E9DC00E000BF7B68FF2283F8442000F0AF
:101B0000FFFF00BF1037BD4680BD80B584B000AF79
:101B1000786000F0BFFF7B689B6B002B02D1012334
:101B2000FB6001E00023FB6000F0EAFFFB68184661
:101B30001037BD4680BD000080B487B000AF78602C
:101B4000396000233B617B68002B0DD14FF05003BF
:101B500072B683F31188BFF36F8FBFF34F8F62B6F6
:101B6000FB6000BF00BFFDE73B68002B24D00023D3
:101B70007B611EE0184A7B69DB0013445B687A686E
:101B80009A4205D17B69DB00134A13443B6113E0A1
:101B90003B69002B0AD1104A7B6952F83330002B85
:101BA00004D17B69DB000C4A13443B617B69013340
:101BB0007B617B69092BDDD93B69002B05D03B6933
:101BC0003A681A603B697A685A6000BF1C37BD46A4
:101BD0005DF8047B704700BF5C01412080B586B092
:101BE00000AFF860B9607A60FB687B6100F052FF7B
:101BF0007B6993F844305BB2B3F1FF3F03D17B695B
:101C0000002283F844207B6993F845305BB2B3F13E
:101C1000FF3F03D17B69002283F8452000F070FF6D
:101C20007B699B6B002B06D17B6924337A68B9688A
:101C30001846FFF7C5F87869FFF708FF00BF1837A7
:101C4000BD4680BD80B58AB000AF78607B689B6C74
:101C50003B6200237B623B6A002B0DD14FF05003A7
:101C600072B683F31188BFF36F8FBFF34F8F62B6E5
:101C70007B6100BF00BFFDE73B6A9A6B3B6ADB6B91
:101C80009A420DD34FF0500372B683F31188BFF31D
:101C90006F8FBFF34F8F62B63B6100BF00BFFDE7A0
:101CA0003B6A9A6B3B6ADB6B9A423FD23B6A93F882
:101CB0004530FB773B1D00221946386AFFF736FE98
:101CC000786297F91F30B3F1FF3F0ED13B6A5B6A30
:101CD000002B2BD03B6A24331846FFF7B9F8034694
:101CE000002B23D001237B6220E0FEF7B9FEB86110
:101CF00097F91F30BA699A4218D997F91F307F2B8C
:101D00000DD14FF0500372B683F31188BFF36F8F7C
:101D1000BFF34F8F62B6FB6000BF00BFFDE7FB7FE4
:101D20000133DBB25AB23B6A83F845207B6A18461E
:101D30002837BD4680BD000080B584B002AF0023C7
:101D40007B6000F077FA134B1B68002B0BD0124B13
:101D500001930823009300234FF400720F491048A9
:101D6000FEF73EFB78607B68002B0DD14FF05003EF
:101D700072B683F31188BFF36F8FBFF34F8F62B6D4
:101D80003B6000BF00BFFDE77B6818460837BD46D3
:101D900080BD00BFDC014120E0014120C42F400094
:101DA000491E400080B584B000AFF860B9607A6029
:101DB00008E0FB689B69BA681344BB60FB681B6A58
:101DC000F8689847FB689A69BB68D118BB687A685D
:101DD000F86800F0DFF80346002BEAD100BF00BF2F
:101DE0001037BD4680BD000080B584B000AF78607C
:101DF0003960144B1B68DB68DB68FB60FB680433ED
:101E00001846FEF787FAFB6893F8243003F00403C2
:101E1000002B05D03A687968F868FFF7C3FF08E03F
:101E2000FB6893F8243023F00103DAB2FB6883F8EF
:101E30002420FB681B6AF868984700BF1037BD462E
:101E400080BD00BFD401412080B584B000AF786070
:101E500007F10803184600F059F8F860BB68194606
:101E6000F86800F005F800F0D7F800BFF0E70000D0
:101E700080B584B000AF78603960FEF7C9FC07F127
:101E80000803184600F066F8F860BB68002B30D1F4
:101E90003B68002B0AD17A68FB689A4206D8FEF7A5
:101EA000C5FCF9687868FFF79FFF24E03B68002BCA
:101EB00008D0134B1B681B68002B01D1012300E0E5
:101EC00000233B600F4B18687A68FB68D31A3A68A6
:101ED0001946FFF783FEFEF7A9FC0346002B0AD143
:101EE000094B4FF080521A60BFF34F8FBFF36F8FD3
:101EF00001E0FEF79BFC00BF1037BD4680BD00BF70
:101F0000D8014120DC01412004ED00E080B485B01F
:101F100000AF78600E4B1B681B68002B01D10122BB
:101F200000E000227B681A607B681B68002B05D1EB
:101F3000074B1B68DB681B68FB6001E00023FB604C
:101F4000FB6818461437BD465DF8047B704700BF38
:101F5000D401412080B584B000AF7860FEF770FDF9
:101F6000F8600B4B1B68FA689A4205D200F03CF906
:101F70007B6801221A6002E07B6800221A60044A32
:101F8000FB681360FB6818461037BD4680BD00BF74
:101F9000E401412080B586B000AFF860B9607A6096
:101FA0003B6000237B61FB68BA685A60FB68FA6893
:101FB0001A61BA687B689A4212D87A683B68D21A6A
:101FC000FB689B699A4202D301237B611BE0104BA3
:101FD0001A68FB68043319461046FEF762F912E0EE
:101FE0007A683B689A4206D2BA683B689A4202D342
:101FF00001237B6107E0074B1A68FB68043319462D
:102000001046FEF74EF97B6918461837BD4680BD6D
:10201000D8014120D401412080B58AB000AF3B1DDA
:1020200000221A605A609A60DA60CBE07B68002B6D
:102030001BDA3B1D04337B627B6A002B0DD14FF012
:10204000500372B683F31188BFF36F8FBFF34F8FC6
:1020500062B6BB6100BF00BFFDE77B6A1B687A6A9E
:1020600050687A6A9268114698477B68002BC0F2E4
:10207000A980FB683B623B6A5B69002B04D03B6A2A
:1020800004331846FEF746F93B461846FFF762FF51
:10209000F8617B68013B082B00F2918001A252F8A5
:1020A00023F000BFC9204000C9204000312140007A
:1020B0004521400095214000C9204000C920400032
:1020C00031214000452140003B6A93F8243043F021
:1020D0000103DAB23B6A83F82420BA683B6A9B6941
:1020E000D118BB68FA69386AFFF754FF0346002B22
:1020F00067D03B6A93F8243003F00403002B09D027
:10210000BA683B6A9B691344FA691946386AFFF753
:1021100049FE08E03B6A93F8243023F00103DAB269
:102120003B6A83F824203B6A1B6A386A984748E078
:102130003B6A93F8243023F00103DAB23B6A83F858
:1021400024203FE03B6A93F8243043F00103DAB2E5
:102150003B6A83F82420BA683B6A9A613B6A9B69B0
:10216000002B0DD14FF0500372B683F31188BFF3EB
:102170006F8FBFF34F8F62B67B6100BF00BFFDE77B
:102180003B6A9A69FB69D118FB69FA69386AFFF7FB
:1021900001FF17E03B6A93F8243003F00203002BA1
:1021A00003D1386A00F0C0F90CE03B6A93F82430A0
:1021B00023F00103DAB23B6A83F8242002E000BF77
:1021C00000E000BF074B1B68391D00221846FFF7CF
:1021D000C5FA0346002B7FF429AF00BF00BF2837A4
:1021E000BD4680BDDC01412080B582B000AF09E072
:1021F0000E4B1B68DB681B683B604FF0FF31386893
:10220000FFF7F2FD094B1B681B68002BF0D1074B51
:102210001B687B60064B1B68044A1360044A7B689A
:10222000136000BF0837BD4680BD00BFD401412008
:10223000D801412080B500AF00F02CFC124B1B6888
:10224000002B1DD11148FDF7FFFF1148FDF7FCFFE2
:10225000104B0E4A1A60104B0D4A1A6000221021D2
:102260000A20FFF707FA0346074A1360064B1B686C
:10227000002B05D0044B1B6808491846FFF75CFC8F
:1022800000F03EFC00BF80BDDC014120AC014120DC
:10229000C0014120D4014120D8014120CC2F400071
:1022A00080B58EB000AF78600023FB620023BB6274
:1022B0007B68002B22D00823DB437A689A421BD824
:1022C00008227B6813447B607B6803F00703002BC4
:1022D00014D07B6803F00703C3F108037B627B6AB9
:1022E000DB437A689A4204D87A687B6A13447B603D
:1022F00004E000237B6001E000237B60FEF788FAA6
:10230000824B1B68002B01D100F08AF97B68002BFF
:10231000C0F2E1807B68002B00F0DD807C4B1B6805
:102320007A689A4200F2D7807A4B3B63794B1B68FC
:102330007B637B6B784A934205D37B6B774A9342EE
:1023400001D8012300E00023002B2DD14FF05003D2
:1023500072B683F31188BFF36F8FBFF34F8F62B6EE
:10236000FB6100BF00BFFDE77B6B3B637B6B1B68C2
:102370007B637B6B684A934205D37B6B674A9342CE
:1023800001D8012300E00023002B0DD14FF05003B2
:1023900072B683F31188BFF36F8FBFF34F8F62B6AE
:1023A000BB6100BF00BFFDE77B6B5B687A689A4248
:1023B00003D97B6B1B68002BD6D1544B1B687A6BFF
:1023C0009A4200F088803B6B1B6808221344FB6232
:1023D000FB6A514A934205D3FB6A504A934201D8A3
:1023E000012300E00023002B0DD14FF0500372B603
:1023F00083F31188BFF36F8FBFF34F8F62B67B619A
:1024000000BF00BFFDE77B6B1A683B6B1A607B6BFC
:102410005B687A689A420DD94FF0500372B683F325
:102420001188BFF36F8FBFF34F8F62B63B6100BF60
:1024300000BFFDE77B6B5A687B68D21A08235B00FC
:102440009A4226D97A6B7B6813443B623B6A03F05D
:102450000703002B0DD04FF0500372B683F31188A1
:10246000BFF36F8FBFF34F8F62B6FB6000BF00BF3B
:10247000FDE77B6B5A687B68D21A3B6A5A607B6BBC
:102480007A685A603B6B1A683B6A1A603B6B3A6A1F
:102490001A601F4B1A687B6B5B68D31A1C4A136067
:1024A0001B4B1A681E4B1B689A4203D2184B1B68C1
:1024B0001B4A13607B6B5B68BB627B6B5B6843F0A2
:1024C00000427B6B5A607B6B00221A60154B1B68C5
:1024D0000133144A1360FEF7A9F9FB6A03F00703FE
:1024E000002B0DD04FF0500372B683F31188BFF369
:1024F0006F8FBFF34F8F62B6BB6000BF00BFFDE7B9
:10250000FB6A18463837BD4680BD00BFF001432046
:10251000F4014320E8014320E8014120E701432082
:10252000F8014320FC01432080B588B000AF7860FB
:102530007B68FB617B68002B66D008235B42FA69ED
:102540001344FB61FB69BB61BB69314A934205D30C
:10255000BB69304A934201D8012300E00023002BDD
:102560000DD14FF0500372B683F31188BFF36F8F14
:10257000BFF34F8F62B67B6100BF00BFFDE7BB6951
:102580005B68002B0DDB4FF0500372B683F31188AC
:10259000BFF36F8FBFF34F8F62B63B6100BF00BFC9
:1025A000FDE7BB691B68002B0DD04FF0500372B6DE
:1025B00083F31188BFF36F8FBFF34F8F62B6FB6059
:1025C00000BF00BFFDE7BB695B68002B1CDABB697D
:1025D0001B68002B18D1BB695B6823F00042BB6904
:1025E0005A60FEF715F9BB695A680B4B1B68134418
:1025F000094A1360B86900F06DF8084B1B68013395
:10260000064A1360FEF712F900BF2037BD4680BDB1
:10261000E8014120E7014320F40143200002432068
:1026200080B485B000AF4FF40033BB60244BFB6037
:10263000FB6803F00703002B0CD0FB680733FB603B
:10264000FB6823F00703FB60BA68FB68D31A1C4AD7
:102650001344BB60FB681B4A13601A4B00225A608C
:10266000FA68BB6813447B6008227B689B1A7B6016
:102670007B6823F007037B607B68134A1360124B6F
:102680001B6800225A60104B1B6800221A60FB680E
:102690003B603B687A68D21A3B685A600A4B1A68FA
:1026A0003B681A603B685B68084A13603B685B687C
:1026B000074A136000BF1437BD465DF8047B7047BE
:1026C000E8014120E8014320F0014320F8014320C4
:1026D000F401432080B487B000AF7860374B7B6152
:1026E00002E07B691B687B617B691B687A689A42A0
:1026F000F7D87B69314A93421AD07B69304A9342BA
:1027000005D37B692F4A934201D8012300E00023BF
:10271000002B0DD14FF0500372B683F31188BFF335
:102720006F8FBFF34F8F62B6FB6000BF00BFFDE746
:102730007B693B617B695B683A6913447A689A42BA
:1027400008D17B695A687B685B681A447B695A6068
:102750007B697B607B683B617B685B683A691A4494
:102760007B691B689A4218D17B691A68164B1B68F3
:102770009A420DD07B685A687B691B685B681A4473
:102780007B685A607B691B681A687B681A6008E07E
:102790000D4B1A687B681A6003E07B691A687B68D6
:1027A0001A607A697B689A4202D07B697A681A60FB
:1027B00000BF1C37BD465DF8047B7047E80143202D
:1027C000E8014120E7014320F001432080B485B0B7
:1027D00000AFF860B9607A60FB68043BFB60FB689F
:1027E0004FF080721A60FB68043BFB60BB6823F00B
:1027F0000102FB681A60FB68043BFB600C4AFB6843
:102800001A60FB68143BFB607A68FB681A60FB681F
:10281000043BFB60FB686FF002021A60FB68203B20
:10282000FB60FB6818461437BD465DF8047B7047B3
:102830003528400080B485B000AF00237B60154B85
:102840001B68B3F1FF3F0DD04FF0500372B683F316
:102850001188BFF36F8FBFF34F8F62B6FB6000BF6D
:1028600000BFFDE74FF0500372B683F31188BFF34A
:102870006F8FBFF34F8F62B6BB6000BF00BF7B6836
:10288000002BFCD000BF00BF1437BD465DF8047BB1
:10289000704700BF0400412000000000000000005D
:1028A000074B19680868B0E8F04F80F30988BFF358
:1028B0006F8F4FF0000080F311887047AFF30080F6
:1028C0000800412000BF00BF08480068006880F38E
:1028D00008884FF0000080F3148862B661B6BFF339
:1028E0004F8FBFF36F8F00DF00BF000008ED00E0E7
:1028F00000BF00BF80B58AB000AF5C4B1B687B6235
:102900007B6A2C331B685A4A93420DD04FF0500318
:1029100072B683F31188BFF36F8FBFF34F8F62B628
:10292000BB6100BF00BFFDE77B6A38331B68514ABB
:1029300093420DD04FF0500372B683F31188BFF36A
:102940006F8FBFF34F8F62B6FB6100BF00BFFDE723
:102950000023BB60484B3B623B6A1B78DBB2FB73D6
:102960003B6AFF221A703B6A1B78DBB2FB71FB7972
:10297000DBB203F05003DAB2404B1A703F4B1B78C6
:10298000002B0DD14FF0500372B683F31188BFF3C3
:102990006F8FBFF34F8F62B67B6100BF00BFFDE753
:1029A000FB79DBB2DB4303F05003002B15D04FF073
:1029B000500372B683F31188BFF36F8FBFF34F8F4D
:1029C00062B63B6100BF00BFFDE7BB680133BB607F
:1029D000FB79DBB25B00DBB2FB71FB79DBB203F0AE
:1029E0008003802BF1D0BB68082B03D1244B00223D
:1029F0001A6004E0BB68C3F10703214A1360204B4F
:102A00001B681B021E4A13601D4B1B6803F4E06326
:102A10001B4A1360FB7BDAB23B6A1A70194B1B68C6
:102A2000184A43F47F031360164B1B68154A43F0A2
:102A30007F431360144B00221A6000F0E9F8134B37
:102A400000221A6000F000F9114B1B68104A43F095
:102A500040431360FFF738FFFEF72AF9FFF7EAFE5D
:102A6000002318462837BD4680BD00BF08ED00E0B2
:102A7000A1284000612B400000E400E00402432054
:102A80000802432020ED00E01CED00E0040041209E
:102A900034EF00E080B483B000AF4FF0500372B663
:102AA00083F31188BFF36F8FBFF34F8F62B67B60E4
:102AB00000BF114B1B6801330F4A13600E4B1B689C
:102AC000012B12D10D4B1B68DBB2002B0DD04FF048
:102AD000500372B683F31188BFF36F8FBFF34F8F2C
:102AE00062B63B6000BF00BFFDE700BF0C37BD46CC
:102AF0005DF8047B704700BF0400412004ED00E056
:102B000080B483B000AF134B1B68002B0DD14FF086
:102B1000500372B683F31188BFF36F8FBFF34F8FEB
:102B200062B67B6000BF00BFFDE70A4B1B68013B3C
:102B3000084A1360074B1B68002B05D100233B603C
:102B40003B6883F3118800BF00BF0C37BD465DF8BA
:102B5000047B7047040041200000000000000000DA
:102B6000EFF30980BFF36F8F154B1A681EF0100F3B
:102B700008BF20ED108A20E9F04F10602DE9090010
:102B80004FF0500072B680F31188BFF34F8FBFF340
:102B90006F8F62B6FEF78CF84FF0000080F311885B
:102BA00009BC19680868B0E8F04F1EF0100F08BFA4
:102BB000B0EC108A80F30988BFF36F8F704700BFB5
:102BC0000800412000BF00BF80B582B000AF4FF0C9
:102BD000500372B683F31188BFF36F8FBFF34F8F2B
:102BE00062B67B6000BFFDF747FF0346002B03D0B2
:102BF000064B4FF080521A6000233B603B6883F322
:102C0000118800BF00BF0837BD4680BD04ED00E05D
:102C100080B400AF084B00221A60084B00221A60F3
:102C2000074B084A1A60044B07221A6000BFBD46D2
:102C30005DF8047B704700BF10E000E018E000E0A2
:102C400014E000E0FF700200DFF80C00016841F4BE
:102C5000700101607047000088ED00E000BF00BF18
:102C6000830730B547D0541E002A3ED0CAB203466F
:102C700001E0013C39D303F8012B9D07F9D1032C66
:102C80002CD9CDB205EB05250F2C05EB054535D923
:102C9000A4F1100222F00F0C03F1100EE6444FEAEB
:102CA000121C1A46C2E90055C2E90255103272459B
:102CB000F8D10CF1010214F00C0F03EB021204F036
:102CC0000F0C13D0ACF1040323F0030304331344BB
:102CD00042F8045B9342FBD10CF003042CB1C9B25F
:102CE0001C4403F8011BA342FBD130BD64461346CC
:102CF000002CF4D1F9E703461446C0E71A46A4466F
:102D0000E0E700BF844641EA000313F003036DD1FE
:102D1000403A41D351F8043B40F8043B51F8043B9E
:102D200040F8043B51F8043B40F8043B51F8043BA5
:102D300040F8043B51F8043B40F8043B51F8043B95
:102D400040F8043B51F8043B40F8043B51F8043B85
:102D500040F8043B51F8043B40F8043B51F8043B75
:102D600040F8043B51F8043B40F8043B51F8043B65
:102D700040F8043B51F8043B40F8043B51F8043B55
:102D800040F8043B51F8043B40F8043B51F8043B45
:102D900040F8043B403ABDD2303211D351F8043BE5
:102DA00040F8043B51F8043B40F8043B51F8043B25
:102DB00040F8043B51F8043B40F8043B103AEDD294
:102DC0000C3205D351F8043B40F8043B043AF9D2E5
:102DD000043208D0D2071CBF11F8013B00F8013BB8
:102DE00001D30B8803806046704700BF082A13D3C5
:102DF0008B078DD010F003038AD0C3F10403D21ADD
:102E0000DB071CBF11F8013B00F8013B80D331F810
:102E1000023B20F8023B7BE7043AD9D3013A11F890
:102E2000013B00F8013BF9D20B7803704B784370FB
:102E30008B788370604670477C3D3D3D3D3D3D3D18
:102E40003D3D3D3D3D3D3D3D3D3D3D3D3D3D3D3DB2
:102E50003D3D3D3D3D3D3D3D3D3D3D3D3D3D3D3DA2
:102E60003D3D3D3D3D3D3D3D3D3D3D3D3D3D3D7C53
:102E70000D0A00002048656C6C6F207461736B3123
:102E80002066726F6D204672656552544F532072F2
:102E9000756E6E696E6720696E2051454D55206FC5
:102EA0006E205333324B335838210D0A0000000096
:102EB0002048656C6C6F207461736B322066726F92
:102EC0006D204672656552544F532072756E6E695F
:102ED0006E6720696E2051454D55206F6E2053332B
:102EE000324B335838210D0A000000003E3E3E2090
:102EF0005333324B335838204672656552544F5322
:102F00002044656D6F20737461727465640D0A00EE
:102F10003E3E3E20496E697469616C697A696E67EC
:102F20002E2E2E0D0A00000054785461736B310070
:102F30004552524F523A204661696C656420746F65
:102F4000206372656174652054785461736B0D0A57
:102F50000000000054785461736B32003E3E3E2006
:102F60005374617274696E67204672656552544F7E
:102F700053207363686564756C65722E2E2E0D0A7E
:102F8000000000004552524F523A20536368656476
:102F9000756C65722072657475726E656420287335
:102FA000686F756C64206E657665722068617070FC
:102FB000656E290D0A0000000800000049444C45D8
:102FC00000000000546D722053766300546D7251FE
:102FD000000000001000000000000000017A520014
:102FE000027C0E011B0C0D001C00000018000000EC
:102FF00000000000D800000000410E088501840296
:1030000002490A4AC5C4410B10000000000000003C
:10301000017A5200027C0E011B0C0D00140000000E
:1030200018000000E0FCFFFF340100000002710AFC
:04303000430B00004E
:08303400D0FCFF7F0100000049
:10303C000000412000000000010000000000000022
:10304C00080041200000000041400000000000008A
:10305C0010024320000000000002000000000000ED
:10306C0000F04320000000000002000000000000FF
:10307C000000000000000000002000000000000024
:10308C0000000020000000000040000000000000D4
:0C309C00A83040000000412002000000AD
:0830A80040787D01AAAAAAAA42
:04000005004001B9FD
:00000001FF
